:4000000080673030303030307e3030307e3030307e3030307e3030307e3030307e3030307e3030307e3030307d03417e7d03427e7d05437e7d05007e7d04bd7e7d047a7e52
:4000400030303030303030303030303030303030303030303030303030303030303030307e3030307e303030711062e38070ef41fefb50244e55fa014f5b010353f955f82c
:400080003a500600711051f960e851f860ea70ef55f80055f900711062e00270ef62e338627105627505627905627d057c033750005512133c1224a0053f128ff8500157e0
:4000c000a05512003c1204a00b08283f12187509008ff2711070ef62e000711062e00170ef62e2007c06dd8fff50087f303030303030303030303030303030303030303057
:4001000030303030303030303030303030303030303030303030303030303030303030303030303030303030303030303030303030303030303030303030303030303030bf
:40014000303030303030303030303030303030303030303030303030303030303030303030303030303030303030303030303030303030303030303030303030303030307f
:40018000303030303030303030303030303030303030303030303030303030303030303000000000711062003c62010070ef62030062023c711062020062030070ef62014d
:4001c00000711062040162050270ef620700620603711062060062070070ef620500711062080062090070ef620b00620a007110620a00620b0070ef6209007110620c00c2
:40020000620d0070ef620f00620e007110620e00620f0070ef620d00711062100062110070ef621300621200711062120062130070ef621100711062140062150070ef62c6
:400240001700621600711062160062170070ef62150070ef62606962660062630062650062e60062e70062d60062b00862b10062b20062b33362b43362b50462b60062b8e1
:400280005562b90062ba1062bb3362bc3362bd2262be116233006231fe6232006237006235fe623600623b006239fe623a00623f00623dfe623e00622f00622d00622e00af
:4002c000622b00622900622a00711062610062690062600062620062673362683362630062660062d10062d30062d00062d20062e1f562e20062df4d62de0062dd00623056
:4003000031623116623244623431623516623645623831623916623a46623c31623d16623e47622c05622dd1622e4062281d622901622a4470ef7f7c033b7f7c01a470ef94
:400340007f7e7d05867e43e10443e1087f41e1fb41e1f77f71102101a00743281070ef7f4128ef70ef7f2901602b602f7f412bfe412ffe7f60297f5d2b7f5d2e7f5d2f7f5b
:40038000210171103901a0064128ef800443281070ef7f082101a00643e108800441e1f7182102a00643e104800441e1fb7f303132333435363738394142434445460867b2
:4003c000676767210fffe7900f18210fffe090087f4b9fea5b9fe77f492b10affc60297f492f08affc5d2e7f5d2f082108b00418800b5d2e4b1821a0b0034b7f50007f5dc9
:400400002f21e8082108b0071829014b80071821e04b5d2e7f5200a0069fbd758ff87f4f52fba0137bfb59fd5200492b10affc60294f77fd8feb7f4f3dfa00b0063dfb00f6
:40044000a01d1052fc59fd28492b10affc60292007fd010ffc0017fb011ffa008fdb7f081028a00b9f72201875dff5748ff238fe7f500d9f63500a9f5f7f7e43e1807f41a7
:40048000e17f7f433f017f413ffe7f603d7f603e7f5d3e7f4f5d3e08413ffe71105d3d08623d0070ef5d3c5d3e085200603e71105201603d70ef433f011838fe7f7e43e18c
:4004c000407f41e1bf7f433b017f413bfe7f60397f603a7f5d3a7f4f5d3a08413bfe71105d390862390070ef5d385d3a085200603a71105201603970ef433b011838fe7fe6
:400500007e43e1207f41e1df7f4337017f4137fe7f60357f60367f5d367f4f5d36084137fe71105d350862350070ef5d345d36085200603671105201603570ef43370118f0
:4005400038fe7f7e43e1107f41e1ef7f4333017f4133fe7f60317f60327f5d327f4f5d32084133fe71105d310862310070ef5d305d32085200603271105201603170ef437f
:4005800033011838fe7f085dd0085dd3085dd4085dd508511208511108511008510f08510e08510d08510c08510b08510a0851090851080851070851060851050851040876
:4005c000104f3808560000560100107c037a20540050003a01d00956030156020080075603005602003d0080d0095605015604008007560500560400520323055311520227
:400600002304b0063c1100a0667a015f11015512000611210e120052003f113c0200a0803c0100b07b510254075606003d0600b0063d07e0a00380685121646464646464fb
:40064000645f0f03551000060f130e10003f0f5f11035512000611130e12003e117a1153105122041051103f1155000180323d00f0d00f520021f054015200210f530380ef
:400680000552005401520154075606003d0600b0063d07e0a00380085501025201530238f82018530418530518530618530718530818530918530a18530b18530c18530d69
:4006c00018530e18530f1853101853111853121860d51860d41860d31860d0187e1050017c039350007c036650007c05577c054c50007c05147c050950007c04d17c04c6de
:4007000050007c048e7c0483207101801f3c0000a01a10511d7c048e511e7c0514511f7c055751207c04d1205500008fe18fff3030303030303030303030303030303030f4
:400740003030303030303030303030303030303030303030303030303030303030303030303030303030303030303030303030303030303030303030303030303030303079
:400780003030303030303030303030303030303030303030303030303030303030303030303030303030303030303030303030303030303030303030303030303030303039
:4007c00030303030303030303030303030303030303030303030303030303030303030303030303030303030303030303030303030303030303030303030303030303030f9
:4008000030303030303030303030303030303030303030303030303030303030303030303030303030303030303030303030303030303030303030303030303030303030b8
:020000040010ea
:020000040020da
:02000000be8db3
:00000001ff
