:4000000080673030303030307e3030307e3030307e3030307e3030307e3030307e3030307d06537e7e3030307d06567e7e3030307e3030307e3030307d09457e7d0aed7e47
:400040007e3030307e3030307e3030307e3030307e3030307e3030307e3030307e3030307e3030307d051b7e711062e38770ef50202850402850602841fefb50804e55f86e
:400080000055f900711062e00270ef62e338627105627505627905627d0562d10750004e62d30762d00062d50062d40071c07c03b862d002500157aa0828531e1875090001
:4000c000284b511e800475090062e300082860d574a04b187509000828531e187509000828a01c531d1875090008283f1e471effb0065dd57460d5187a1dbfeb8fc9187594
:4001000009000828531d50003f1e471effb0085dd57460d550007a1dbfef188faa18711070ef62e000711062e00243e78070ef62e2007c07818fff50107f303030303030af
:40014000303030303030303030303030303030303030303030303030303030303030303030303030303030303030303030303030303030303030303030303030303030307f
:40018000303030303030303030303030303030303030303030303030303030303030303002030405060808090a0b107771106200006201ff70ef6203ff6202007110620225
:4001c0000062030070ef620100711062048062055f70ef62075c620600711062060062070070ef62050071106208406209bf70ef620bbb620a447110620a00620b0070efc2
:400200006209007110620c00620d0070ef620f00620e007110620e00620f0070ef620d00711062100062110070ef621300621200711062120062130070ef621100711062b8
:40024000140062150070ef621700621600711062160062170070ef621500711062180062190070ef621b00621a007110621a00621b0070ef6219007110621c00621d00704b
:40028000ef621f00621e007110621e00621f0070ef621d0070ef62602862660062630562650062e62062e70062d60062b00062b10062b20062b33362b43362b50062b6006a
:4002c00062b84562b90062ba1062bb3362bc3362bd0062be0262c00062c10062c22062c33362c43362c50062c60062c85562c90062ca3062cb3362cc3362cd0062ce006265
:400300006c00626d00626e00626f006284906285006286616287f0622300622100622200622700622500622600622b00622900622a006275fe627621627720627400623b60
:4003400000623900623a00623f00623d00623e00711062610062690062600062620062673362683362630062660062d10062d30062d00062d20062e1b062e20062df336270
:40038000de0062dd0062e700622021622155622240622401622515622640622821622935622a406238056239e1623a40623c1d623d01623e4670ef7f5507005508805509c9
:4003c0005f7c03c57f7c01ac70ef7f43e18043e1407f41e17f41e1bf7f71102101a007433c1070ef7f413cef70ef7f2901603f603b7f413ffe413bfe7f603d7f5d3f7f5d5d
:400400003a7f5d3b7f210171103901a006413cef8004433c1070ef7f082101a00643e140800441e1bf182102a00643e180800441e17f7f3031323334353637383941424377
:400440004445460867676767210fffe7900f18210fffe090087f4b9fea5b9fe77f493f10affc603d7f493b08affc5d3a7f5d3b082108b00418800b5d3a4b1821a0b0034b5d
:400480007f50007f5d3b21e8082108b0071829014b80071821e04b5d3a7f70bf60d35200a0069fb9758ff8703f71c07f70bf62d3074f52fba01a7bfb52fc59fd60d352006a
:4004c000493f10affc603d4f62d30777fd8fe4703f71c07f4f3dfa00b0063dfb00a01d1052fc59fd28493f10affc603d2007fd010ffc0017fb011ffa008fdb703f71c07f39
:40050000081028a00b9f56201875dff5748ff238fe7f500d9f47500a9f437f2e00014702ffa0037a024701ffa0037a017606d00b7605d0077604d00376037e43e0407f41a7
:40054000e0bf7f62d000500053005301530253065305530453037f7f21184f0871105de021e72b0060e070ef18703f71c07f62d0005500004700ffaffc55000078bff67f73
:4005800062d0004b2101b0064702ffbffc4b53027f62d00051067f62d00053017f62d00051017f62d00041e0bf5106580543e0407f70bf41e0bf62d00060d30851035400e8
:4005c0005104540151055402510654031843e040703f71c07f21034f085d7721fc2b00607718703f71c07f21fc4f085d752107480004b00e4174fe2b00607518703f71c015
:400600007f2700182b00607543740118703f71c07f4177fc7f4f21076708d00f711043628070ef5d6021fc7d0639711041627f70ef660066005d6021f32b00606018703fe9
:4006400071c07f7f7ffffefcf8f0e0c002040810204080760a7e4123fe43862043871071014070fe085d205d227873d003760a530c510a530b6221ff432301550a004187a0
:40068000ef4186df510d210fffc208220ba00b181101530b550cff800218680b6e0c680b6e0c182e0d10470effa0177a0eb0134127fe4123fe43862043871041e1fb41e197
:4006c000fe7e62d0004f2103085d8721fc2b0029f06087498601a0055001530d18703f71c07f4187fc7f62d000530e510d210f0107905b5d2a530a5000120a67550a005d3e
:40070000266221ff4187ef4186df43230543270143e10443e1017f4127fe4123fe4386204387100841e1fb41e1fe187f62d000510d21107f62d000260def580b510c7f6276
:40074000d000580b510c7f62d000260def7f62d0004186fe9fc1550d003907d00550078007390dc003500d11072c0d01015c50016479bffd622600602a62251e01006029ab
:400780007f9043803e10570050017c0580207c086962d0023900a0077c08727c0aee90c8905550080850020850000862d00051fa0851fb0862d00051f80851f9087c0879eb
:4007c00038f98fc28fff107c03cb50007c03eb207101107c054350087c05587c053b50007c06157c064350027c05d550f87c05e750027c06c2207f104f3801560000560005
:400800000080441052007c061550017c06e620107c072c62d002203900aff5107c073462d002531d5a1e205200531b551c00651b6b1c061b000e1c02511c60d5511e3f1b3f
:40084000511d3f1b77003d0008cfb9490420a00c62d00055fb7755fa77800a62d00055fb2255fa2238ff207f7f62d002512f62d0027f62d002552f007f104f380256000013
:4008800056010062d000550f835510ff5511ff55120055130055140152fb531552fc531652f9531752fa531856010a560000807362d0025200531d551e00651d6b1e52f886
:4008c000041d52f70c1e511e60d43e1d531e3e1d5201531b551c00061b0f0e1c00511c60d5511e3f1b77015200531d551e00651d6b1e52f8041d52f70c1e511e60d43e1d0f
:40090000531e3e1d261e00531e5201531b551c00061b0f0e1c00511c60d5511e3f1b7701770052003bf6cf8952f662d002531e651e061e0a511e08501208503408957f381e
:40094000fd38fe207f71c0085dd0085dd3085dd4085dd50862d002511e08511d08511c08511b08511a08511908511808511708511608511508511408511308511208511139
:4009800008511008104f3801107c03ff2054003d007eb03362d00055fe0062d00055f70055f60062d00055fd0062d00051fe62d002531d551e00061d8f0e1e00511e60d5a2
:4009c00052003f1d80e73d007db00962d00055fd0180da62d00076fe62d0003cfd00a02d62d00252003120531e62d00051fe62d002531b551c00061b8f0e1c00511c60d55a
:400a0000511e3f1b62d00055fd00801c62d00051fe62d002531d551e00061d8f0e1e00511e60d552003f1d62d00250011057a02820531e62d00051fe62d0023a1eb024627d
:400a4000d000519162d002531d62d000519062d002531e061d040e1e00511d62d00053ff804b62d00051ff110162d002531e62d00051fe62d0023a1eb00962d002552f01a0
:400a8000802b62d00050023afed02262d00051fe62d002531d551e00061d8f0e1e00511e60d43e1d62d00004f70ef60038ff2062d002185310185311185312185313185350
:400ac0001418531518531618531718531818531918531a18531b18531c18531d18531e1860d51860d41860d31860d0187e7e104f380856010056000062d00250011057a19c
:400b00002820531d551e00061d8f0e1e00511e60d43e1d5403560200520311815311520231801980c1222a11a0173d0200b0063d0389a06c3d0200b0063d038aa0a28108ed
:400b400062d00250011057a02820531d551e00061d8f0e1e00511e60d43e1d531e161e05511e5401560000802f62d0025200531d551e0050011057a62820021d531d500081
:400b80000a1e531e061d8f0e1e00511e60d43e1d0890b838ff770052003b01cfcd80a962d00250011057a12820531d551e00061d910e1e00511e60d43e1d54055604003de9
:400bc0000400b0063d0501a07f3d0400b0063d0502a0753d0400b0063d0503a06b806962d00250011057a12820531d551e00061d900e1e00511e60d43e1d54075606003dd0
:400c00000600b0063d0700a03f3d0600b0063d0701a0353d0600b0063d0702a02b3d0600b0063d0703a0213d0600b0063d0704a0173d0600b0063d0705a00d3d0600b006d7
:400c40003d0706a003800138f8207f104f380756000062d00250003a2dd00956020156010080075602005601003dfc80d009560401560300800756040056030062d0025293
:400c8000022304531d520123033900b0063c1d00a11762d0027a2d512d62d002531d551e00061df30e1e00511e60d552fc3f1d62d0003cfc00a19e62d0023c2d00b1966233
:400cc000d00051fc5406560500520611d062d00253115205318019802a11a0c5d0225206119062d0025311520531801980c0b22a11a0663d0500b0063d06c0a0a480a25286
:400d00000611e062d0025311520531801980c0912a11a00d3d0500b0063d06f4a083808162d00051f362d00264646464646464531e62d00051f462d002041e62d002512ea0
:400d400062d002531b551c00061b1f0e1c02511c60d5511e3f1b804962d00051f462d002531d551e0062d00051f362d002531b551c00651b6b1c651b6b1c651b6b1c651b14
:400d80006b1c651b6b1c651b6b1c651b6b1c511b021d531d511c0a1e08511d0890ba38fe62d00055fc0080ad3dfcf0d01252fc21f0540062d00252fc210f532e800552fc95
:400dc000540052005406560500520611e062d00253115205318019802a11a05dd02e520611c062d00253115205318019802a11a057d00d3d0500b0063d0690a03c80563db5
:400e00000500b0063d06d0a03f804a520611f962d00253115205318019802a11a037d00d3d0500b0063d06f4a00f80293d0500b0063d06ffa01f801d62d002552d0252008a
:400e400062d00053fc800e62d002552d01520062d00053fc38f9207f104f3803560000805562d0025200551b01551c00210fa00b62d002651b6b1c78bff762d002511b54a4
:400e800002511c54013d0009b02a52fc2302531d52fb23013900b0063c1d00a0145d0462d002531e261edf2e1e80511e6004800441045f77003d000acfa838fd207f104fa6
:400ec000380252fa0105540156000062d00155800155810052fb538252fc5383558401560000803062d0025200531d551e00061d0f0e1e00511e60d43e1d531e5200531bc0
:400f0000551c00061b850e1c01511c60d5511e3f1b770052003bfacfcc520108900638ff38fe207f104f380856020056010056030056040056000056000080eb62d00252d0
:400f400000531d551e00061d800e1e01511e60d43e1d54075606003d0600b0063d0711a02d3d0600b0063d0713a02352071111520631801980c0643d0600b0063d077da040
:400f80000d3d0600b0063d077ea003804e62d0025203531d551e00061d030e1e01511e60d5507d3f1d77035200531d551e00061d800e1e01511e60d43e1d531e361e2052b8
:400fc00003531b551c00061b030e1c01511c60d5511e3f1b77037704803062d0025200531d551e00061d800e1e01511e60d43e1d531e5203531b551c00061b030e1c015134
:401000001c60d5511e3f1b770362d0025200531d551e00061d800e1e01511e60d43e1d05020f0100770052003bfccf1162d00155007e55010052031304530262d002520249
:40104000531d50ff121d531e5203531b551c00061b030e1c01511c60d5511e3f1b520301045405105205085001085000087c04ac38fd2038f8207f000f00e900f801ff0010
:40108000f900ff01f80018021f0011ff0030303030303030303030303030303030303030303030303030303030303030303030303030303030303030303030303030303066
:4010c00030303030303030303030303030303030303030303030303030303030303030303030303030303030303030303030303030303030303030303030303030303030f0
:4011000030303030303030303030303030303030303030303030303030303030303030303030303030303030303030303030303030303030303030303030303030303030af
:40114000303030303030303030303030303030303030303030303030303030303030303030303030303030303030303030303030303030303030303030303030303030306f
:40118000303030303030303030303030303030303030303030303030303030303030303030303030303030303030303030303030303030303030303030303030303030302f
:020000040010ea
:020000040020da
:02000000e472a8
:00000001ff
