:4000000080673030303030307e3030307e3030307e3030307e3030307e3030307e3030307d06527e7e3030307d06557e7e3030307e3030307e3030307d095a7e7d0b4f7ed1
:400040007e3030307e3030307e3030307e3030307e3030307e3030307e3030307e3030307e3030307d051a7e711062e38770ef50202850402850602841fefb50804e55f86f
:400080000055f900711062e00270ef62e338627105627505627905627d0562d10750004e62d30762d00062d50062d40071c07c03b762d002500157a90828531e1875090003
:4000c000284b511e800475090062e300082860d574a04b187509000828531e187509000828a01c531d1875090008283f1e471effb0065dd57460d5187a1dbfeb8fc9187594
:4001000009000828531d50003f1e471effb0085dd57460d550007a1dbfef188faa18711070ef62e000711062e00243e78070ef62e2007c07808fff50107f303030303030b0
:40014000303030303030303030303030303030303030303030303030303030303030303030303030303030303030303030303030303030303030303030303030303030307f
:400180003030303030303030303030303030303030303030303030303030303030303030020304050608090a0b0def71106200006201ff70ef6203ff6202007110620200b8
:4001c00062030070ef620100711062048062055f70ef62075c620600711062060062070070ef62050071106208406209bf70ef620bbb620a447110620a00620b0070ef6260
:4002000009007110620c00620d0070ef620f00620e007110620e00620f0070ef620d00711062100062110070ef621300621200711062120062130070ef6211007110621406
:400240000062150070ef621700621600711062160062170070ef621500711062180062190070ef621b00621a007110621a00621b0070ef6219007110621c00621d0070ef70
:40028000621f00621e007110621e00621f0070ef621d0070ef62602862660062630562650062e62062e70062d60062b00062b10062b20062b33362b43362b50062b60062f7
:4002c000b84562b90062ba1062bb3362bc3362bd0062be0262c00062c10062c22062c33362c43362c50062c60062c85562c90062ca3062cb3362cc3362cd0062ce00626c5b
:4003000000626d00626e00626f006284906285006286616287f0622300622100622200622700622500622600622b00622900622a006275fe627621627720627400623b00cc
:40034000623900623a00623f00623d00623e00711062610062690062600062620062673362683362630062660062d10062d30062d00062d20062e1b062e20062df3362de92
:400380000062dd0062e700622021622155622240622401622515622640622821622935622a406238056239e1623a40623c1d623d01623e4670ef7f55070055088055095f48
:4003c0007c03c47f7c01ab70ef7f43e18043e1407f41e17f41e1bf7f71102101a007433c1070ef7f413cef70ef7f2901603f603b7f413ffe413bfe7f603d7f5d3f7f5d3a84
:400400007f5d3b7f210171103901a006413cef8004433c1070ef7f082101a00643e140800441e1bf182102a00643e180800441e17f7f30313233343536373839414243446d
:4004400045460867676767210fffe7900f18210fffe090087f4b9fea5b9fe77f493f10affc603d7f493b08affc5d3a7f5d3b082108b00418800b5d3a4b1821a0b0034b7f22
:4004800050007f5d3b21e8082108b0071829014b80071821e04b5d3a7f70bf60d35200a0069fb9758ff8703f71c07f70bf62d3074f52fba01a7bfb52fc59fd60d3520049a0
:4004c0003f10affc603d4f62d30777fd8fe4703f71c07f4f3dfa00b0063dfb00a01d1052fc59fd28493f10affc603d2007fd010ffc0017fb011ffa008fdb703f71c07f087a
:400500001028a00b9f56201875dff5748ff238fe7f500d9f47500a9f437f2e00014702ffa0037a024701ffa0037a017606d00b7605d0077604d00376037e43e0407f41e0cf
:40054000bf7f62d000500053005301530253065305530453037f7f21184f0871105de021e72b0060e070ef18703f71c07f62d0005500004700ffaffc55000078bff67f62f1
:40058000d0004b2101b0064702ffbffc4b53027f62d00051067f62d00053017f62d00051017f62d00041e0bf5106580543e0407f70bf41e0bf62d00060d3085103540051f9
:4005c00004540151055402510654031843e040703f71c07f21034f085d7721fc2b00607718703f71c07f21fc4f085d752107480004b00e4174fe2b00607518703f71c07fe7
:400600002700182b00607543740118703f71c07f4177fc7f4f21076708d00f711043628070ef5d6021fc7d0638711041627f70ef660066005d6021f32b00606018703f71f8
:40064000c07f7f7ffffefcf8f0e0c002040810204080760a7e4123fe43862043871071014070fe085d205d227873d003760a530c510a530b6221ff432301550a004187ef22
:400680004186df510d210fffc208220ba00b181101530b550cff800218680b6e0c680b6e0c182e0d10470effa0177a0eb0134127fe4123fe43862043871041e1fb41e1fe88
:4006c0007e62d0004f2103085d8721fc2b0029f06087498601a0055001530d18703f71c07f4187fc7f62d000530e510d210f0107905b5d2a530a5000120a67550a005d2616
:400700006221ff4187ef4186df43230543270143e10443e1017f4127fe4123fe4386204387100841e1fb41e1fe187f62d000510d21107f62d000260def580b510c7f62d0cc
:4007400000580b510c7f62d000260def7f62d0004186fe9fc1550d003907d00550078007390dc003500d11072c0d01015c50016479bffd622600602a62251e010060297ffc
:400780009059805410570050017c057f207c087e62d0023900a01a7c08877c0b505d0462d002531e261edf2e1e80511e6004800441045f90c890555008085002085000085a
:4007c00062d00051f50851f60862d00051f30851f4087c088e38f98fac8fff107c03ca50007c03ea207101107c054250087c05577c053a50007c06147c064250027c05d4a0
:4008000050f87c05e650027c06c1207f104f380156000056000080441052007c061450017c06e520107c072b62d002203900aff5107c073362d002531d5a1e205200531b4c
:40084000551c00651b6b1c061b000e1c02511c60d5511e3f1b511d3f1b77003d0008cfb9490420a00c62d00055f67755f577800a62d00055f62255f52238ff207f7f62d052
:400880000051fb62d0027f62d00055fb007f104f380256000056010062d000550f835510ff5511ff55120055130055140152fb531552fc531652f9531752fa531856010a9e
:4008c000560000807362d0025200531d551e00651d6b1e52f8041d52f70c1e511e60d43e1d531e3e1d5201531b551c00061b0f0e1c00511c60d5511e3f1b77015200531d62
:40090000551e00651d6b1e52f8041d52f70c1e511e60d43e1d531e3e1d261e00531e5201531b551c00061b0f0e1c00511c60d5511e3f1b7701770052003bf6cf8952f66271
:40094000d002531e651e061e0a511e0850120850340892e238fd38fe207f71c0085dd0085dd3085dd4085dd50862d002511e08511d08511c08511b08511a08511908511827
:4009800008511708511608511508511408511308511208511108511008104f3801107c03fe2054003d007eb03362d00055fa0062d00055f80055f70062d00055f90062d096
:4009c0000051fa62d002531d551e00061d8f0e1e00511e60d552003f1d812e3d007db00962d00055f901812162d00076fa62d0003cf900a02d62d00252003120531e62d0d0
:400a00000051fa62d002531b551c00061b8f0e1c00511c60d5511e3f1b62d00055f900801c62d00051fa62d002531d551e00061d8f0e1e00511e60d552003f1d62d00250af
:400a4000011057a02820531e62d00051fa62d0023a1eb02462d000519162d002531d62d000519062d002531e061d040e1e00511d62d00053fc809262d00051fc110162d051
:400a800002531e62d00051fa62d0023a1eb05062d00051fc62d002531d551e00061d8e0e1e00511e60d43e1d531d551e0062d00051f862d002531b62d00051f7210062d07c
:400ac00002531c511b021d531d511c0a1e3900b0383c1dffb03362d00055fb01802b62d00050023afad02262d00051fa62d002531d551e00061d8f0e1e00511e60d43e1d51
:400b000062d00004f80ef70062d00055fb0138ff2062d00218531018531118531218531318531418531518531618531718531818531918531a18531b18531c18531d1853f4
:400b40001e1860d51860d41860d31860d0187e7e104f380662d00250011057a12820531d551e00061d8f0e1e00511e60d43e1d54015600003d0000b0063d0189a00d3d0097
:400b800000b0063d018aa04380a962d00250011057a12820531d551e00061d910e1e00511e60d43e1d54035602003d0200b0063d0301a07f3d0200b0063d0302a0753d0286
:400bc00000b0063d0303a06b806962d00250011057a12820531d551e00061d900e1e00511e60d43e1d54055604003d0400b0063d0500a03f3d0400b0063d0501a0353d0458
:400c000000b0063d0502a02b3d0400b0063d0503a0213d0400b0063d0504a0173d0400b0063d0505a00d3d0400b0063d0506a003800138fa207f104f380252fa010554019f
:400c400056000062d00155800155810052fb538252fc5383558401560000803062d0025200531d551e00061d0f0e1e00511e60d43e1d531e5200531b551c00061b850e1ce2
:400c800001511c60d5511e3f1b770052003bfacfcc520108900638ff38fe207f104f380856020056010056030056040056000056000080eb62d0025200531d551e00061d8e
:400cc000800e1e01511e60d43e1d54075606003d0600b0063d0711a02d3d0600b0063d0713a02352071111520631801980c0643d0600b0063d077da00d3d0600b0063d077f
:400d00007ea003804e62d0025203531d551e00061d030e1e01511e60d5507d3f1d77035200531d551e00061d800e1e01511e60d43e1d531e361e205203531b551c00061b81
:400d4000030e1c01511c60d5511e3f1b77037704803062d0025200531d551e00061d800e1e01511e60d43e1d531e5203531b551c00061b030e1c01511c60d5511e3f1b7728
:400d80000362d0025200531d551e00061d800e1e01511e60d43e1d05020f0100770052003bfccf1162d00155007e55010052031304530262d0025202531d50ff121d531efe
:400dc0005203531b551c00061b030e1c01511c60d5511e3f1b520301045405105205085001085000087c04ab38fd2038f8207f000f00e400f301ff00f40009010000ff01ff
:400e0000ff0011ff00303030303030303030303030303030303030303030303030303030303030303030303030303030303030303030303030303030303030303030303093
:400e40003030303030303030303030303030303030303030303030303030303030303030303030303030303030303030303030303030303030303030303030303030303072
:400e80003030303030303030303030303030303030303030303030303030303030303030303030303030303030303030303030303030303030303030303030303030303032
:400ec00030303030303030303030303030303030303030303030303030303030303030303030303030303030303030303030303030303030303030303030303030303030f2
:400f000030303030303030303030303030303030303030303030303030303030303030303030303030303030303030303030303030303030303030303030303030303030b1
:020000040010ea
:020000040020da
:020000009fda85
:00000001ff
