:4000000080673030303030307e3030307e3030307e3030307e3030307e3030307e3030307d065b7e7e3030307d065e7e7e3030307e3030307e3030307d09c87e7d0b707e30
:400040007e3030307e3030307e3030307e3030307e3030307e3030307e3030307e3030307e3030307d05237e711062e38770ef50202850402850602841fefb50804e55f866
:400080000055f900711062e00270ef62e338627105627505627905627d0562d10750004e62d30762d00062d50062d40071c07c03c062d002500157b20828531e18750900f1
:4000c000284b511e800475090062e300082860d574a04b187509000828531e187509000828a01c531d1875090008283f1e471effb0065dd57460d5187a1dbfeb8fc9187594
:4001000009000828531d50003f1e471effb0085dd57460d550007a1dbfef188faa18711070ef62e000711062e00243e78070ef62e2007c07898fff50107f303030303030a7
:40014000303030303030303030303030303030303030303030303030303030303030303030303030303030303030303030303030303030303030303030303030303030307f
:400180003030303030303030303030303030303030303030303030303030303030303030070306020501040002030405060808090a0b10fa71106200006201ff70ef6203ce
:4001c000ff620200711062020062030070ef620100711062048062055f70ef62075c620600711062060062070070ef62050071106208406209bf70ef620bbb620a447110b2
:40020000620a00620b0070ef6209007110620c00620d0070ef620f00620e007110620e00620f0070ef620d00711062100062110070ef621300621200711062120062130035
:4002400070ef621100711062140062150070ef621700621600711062160062170070ef621500711062180062190070ef621b00621a007110621a00621b0070ef6219007113
:4002800010621c00621d0070ef621f00621e007110621e00621f0070ef621d0070ef62602862660062630562650062e62062e70062d60062b00062b10062b20062b3336203
:4002c000b43362b50062b60062b84562b90062ba1062bb3362bc3362bd0062be0262c00062c10062c22062c33362c43362c50062c60062c85562c90062ca3062cb3362cc43
:400300003362cd0062ce00626c00626d00626e00626f006284906285006286616287f0622300622100622200622700622500622600622b00622900622a006275fe627621d8
:40034000627720627400623b00623900623a00623f00623d00623e00711062610062690062600062620062673362683362630062660062d10062d30062d00062d20062e1ce
:40038000b062e20062df3362de0062dd0062e700622021622155622240622401622515622640622821622935622a406238056239e1623a40623c1d623d01623e4670ef7f96
:4003c00055070055088055095f7c03cd7f7c01b470ef7f43e18043e1407f41e17f41e1bf7f71102101a007433c1070ef7f413cef70ef7f2901603f603b7f413ffe413bfec9
:400400007f603d7f5d3f7f5d3a7f5d3b7f210171103901a006413cef8004433c1070ef7f082101a00643e140800441e1bf182102a00643e180800441e17f7f30313233343d
:4004400035363738394142434445460867676767210fffe7900f18210fffe090087f4b9fea5b9fe77f493f10affc603d7f493b08affc5d3a7f5d3b082108b00418800b5de0
:400480003a4b1821a0b0034b7f50007f5d3b21e8082108b0071829014b80071821e04b5d3a7f70bf60d35200a0069fb9758ff8703f71c07f70bf62d3074f52fba01a7bfb37
:4004c00052fc59fd60d35200493f10affc603d4f62d30777fd8fe4703f71c07f4f3dfa00b0063dfb00a01d1052fc59fd28493f10affc603d2007fd010ffc0017fb011ffad9
:40050000008fdb703f71c07f081028a00b9f56201875dff5748ff238fe7f500d9f47500a9f437f2e00014702ffa0037a024701ffa0037a017606d00b7605d0077604d003f8
:4005400076037e43e0407f41e0bf7f62d000500053005301530253065305530453037f7f21184f0871105de021e72b0060e070ef18703f71c07f62d0005500004700ffaf56
:40058000fc55000078bff67f62d0004b2101b0064702ffbffc4b53027f62d00051067f62d00053017f62d00051017f62d00041e0bf5106580543e0407f70bf41e0bf62d0ce
:4005c0000060d308510354005104540151055402510654031843e040703f71c07f21034f085d7721fc2b00607718703f71c07f21fc4f085d752107480004b00e4174fe2bff
:4006000000607518703f71c07f2700182b00607543740118703f71c07f4177fc7f4f21076708d00f711043628070ef5d6021fc7d0641711041627f70ef660066005d6021b9
:40064000f32b00606018703f71c07f7f7ffffefcf8f0e0c002040810204080760a7e4123fe43862043871071014070fe085d205d227873d003760a530c510a530b6221ff89
:40068000432301550a004187ef4186df510d210fffc208220ba00b181101530b550cff800218680b6e0c680b6e0c182e0d10470effa0177a0eb0134127fe4123fe43862022
:4006c00043871041e1fb41e1fe7e62d0004f2103085d8721fc2b0029f06087498601a0055001530d18703f71c07f4187fc7f62d000530e510d210f0107905b5d2a530a5064
:4007000000120a67550a005d266221ff4187ef4186df43230543270143e10443e1017f4127fe4123fe4386204387100841e1fb41e1fe187f62d000510d21107f62d00026d4
:400740000def580b510c7f62d000580b510c7f62d000260def7f62d0004186fe9fc1550d003907d00550078007390dc003500d11072c0d01015c50016479bffd6226006067
:400780002a62251e010060297f9043803e10570050017c0588207c088362d0023900a0077c088c7c0b7190da905550040850020850000862d00051fa0851fb0862d0005113
:4007c000f80851f9087c089338f98fc28fff107c03d350007c03f3207101107c054b50087c05607c054350007c061d7c064b50027c05dd50f87c05ef50027c06ca207f1080
:400800004f380156000056000080561052007c061d50017c06ee20107c073462d002203900aff5107c073c62d002531d5a1e205200531b551c00061ba00e1c01511c1058d7
:400840001b2820531b551c00651b6b1c061b000e1c02511c60d5511e3f1b511d3f1b77003d0008cfa7490420a00c62d00055fb0055fa01800a62d00055fb0055fa0038ff00
:40088000207f7f62d002512f62d0027f62d002552f007f104f380256010056000062d000550f9052fa217f531062d00252fa531d52f9531e70fb6e1e6e1d70fb6e1e6e1d11
:4008c00070fb6e1e6e1d70fb6e1e6e1d70fb6e1e6e1d70fb6e1e6e1d70fb6e1e6e1d511d62d000531156000356010080c762d002520101e0531e5200531b551c00061b0f39
:400900000e1c00511c60d5511e3f1b77005201531d551e00651d6b1e52f8041d52f70c1e511e60d43e1d531e3e1d531d261d7f261e00511d531e5200531b551c00061b0f0c
:400940000e1c00511c60d5511e3f1b77005201531d551e00651d6b1e52f8041d52f70c1e511e60d43e1d531e3e1d531d70fb6e1e6e1d70fb6e1e6e1d70fb6e1e6e1d70fb21
:400980006e1e6e1d70fb6e1e6e1d70fb6e1e6e1d70fb6e1e6e1d511d531e5200531b551c00061b0f0e1c00511c60d5511e3f1b7700770152013bf6cf355200085000080894
:4009c000957f38fd38fe207f71c0085dd0085dd3085dd4085dd50862d002511e08511d08511c08511b08511a085119085118085117085116085115085114085113085112d7
:400a000008511108511008104f3801107c04072054003d007eb03362d00055fe0062d00055f70055f60062d00055fd0062d00051fe62d002531d551e00061d8f0e1e005101
:400a40001e60d552003f1d80e73d007db00962d00055fd0180da62d00076fe62d0003cfd00a02d62d00252003120531e62d00051fe62d002531b551c00061b8f0e1c0051d7
:400a80001c60d5511e3f1b62d00055fd00801c62d00051fe62d002531d551e00061d8f0e1e00511e60d552003f1d62d00250011057a82820531e62d00051fe62d0023a1eda
:400ac000b02462d000519162d002531d62d000519062d002531e061d040e1e00511d62d00053ff804b62d00051ff110162d002531e62d00051fe62d0023a1eb00962d0026f
:400b0000552f01802b62d00050023afed02262d00051fe62d002531d551e00061d8f0e1e00511e60d43e1d62d00004f70ef60038ff2062d0021853101853111853121853c8
:400b40001318531418531518531618531718531818531918531a18531b18531c18531d18531e1860d51860d41860d31860d0187e7e104f380856010056000062d0025001a5
:400b80001057a92820531d551e00061d8f0e1e00511e60d43e1d5403560200520311815311520231801980c1222a11a0173d0200b0063d0389a06c3d0200b0063d038aa088
:400bc000a2810862d00250011057a82820531d551e00061d8f0e1e00511e60d43e1d531e161e05511e5401560000802f62d0025200531d551e0050011057ae2820021d5333
:400c00001d50000a1e531e061d8f0e1e00511e60d43e1d0890b838ff770052003b01cfcd80a962d00250011057a92820531d551e00061d910e1e00511e60d43e1d54055634
:400c400004003d0400b0063d0501a07f3d0400b0063d0502a0753d0400b0063d0503a06b806962d00250011057a92820531d551e00061d900e1e00511e60d43e1d54075649
:400c800006003d0600b0063d0700a03f3d0600b0063d0701a0353d0600b0063d0702a02b3d0600b0063d0703a0213d0600b0063d0704a0173d0600b0063d0705a00d3d06ca
:400cc00000b0063d0706a003800138f8207f104f380756000062d00250003a2dd00956020156010080075602005601003dfc80d00956040156030080075604005603006281
:400d0000d00252022304531d520123033900b0063c1d00a11762d0027a2d512d62d002531d551e00061df30e1e00511e60d552fc3f1d62d0003cfc00a19e62d0023c2d0037
:400d4000b19662d00051fc5406560500520611d062d00253115205318019802a11a0c5d0225206119062d0025311520531801980c0b22a11a0663d0500b0063d06c0a0a4d0
:400d800080a2520611e062d0025311520531801980c0912a11a00d3d0500b0063d06f4a083808162d00051f362d00264646464646464531e62d00051f462d002041e62d02d
:400dc00002512e62d002531b551c00061b1f0e1c02511c60d5511e3f1b804962d00051f462d002531d551e0062d00051f362d002531b551c00651b6b1c651b6b1c651b6baf
:400e00001c651b6b1c651b6b1c651b6b1c651b6b1c511b021d531d511c0a1e08511d0890ba38fe62d00055fc0080ad3dfcf0d01252fc21f0540062d00252fc210f532e80cb
:400e40000552fc540052005406560500520611e062d00253115205318019802a11a05dd02e520611c062d00253115205318019802a11a057d00d3d0500b0063d0690a03cf4
:400e800080563d0500b0063d06d0a03f804a520611f962d00253115205318019802a11a037d00d3d0500b0063d06f4a00f80293d0500b0063d06ffa01f801d62d002552d4b
:400ec00002520062d00053fc800e62d002552d01520062d00053fc38f9207f104f3803560000805562d0025200551b01551c00210fa00b62d002651b6b1c78bff762d00290
:400f0000511b5402511c54013d0009b02a52fc2302531d52fb23013900b0063c1d00a0145d0462d002531e261edf2e1e80511e6004800441045f77003d000acfa838fd2043
:400f40007f104f380252fa0105540156000062d00155800155810052fb538252fc5383558401560000803062d0025200531d551e00061d0f0e1e00511e60d43e1d531e52cf
:400f800000531b551c00061b850e1c01511c60d5511e3f1b770052003bfacfcc520108900638ff38fe207f104f380856020056010056030056040056000056000080eb6206
:400fc000d0025200531d551e00061d800e1e01511e60d43e1d54075606003d0600b0063d0711a02d3d0600b0063d0713a02352071111520631801980c0643d0600b0063dc0
:40100000077da00d3d0600b0063d077ea003804e62d0025203531d551e00061d030e1e01511e60d5507d3f1d77035200531d551e00061d800e1e01511e60d43e1d531e36a3
:401040001e205203531b551c00061b030e1c01511c60d5511e3f1b77037704803062d0025200531d551e00061d800e1e01511e60d43e1d531e5203531b551c00061b030e91
:401080001c01511c60d5511e3f1b770362d0025200531d551e00061d800e1e01511e60d43e1d05020f0100770052003bfccf1162d00155007e55010052031304530262d0b1
:4010c000025202531d50ff121d531e5203531b551c00061b030e1c01511c60d5511e3f1b520301045405105205085001085000087c04b438fd2038f8207f000f00e900f832
:4011000001ff00f900ff01f80018021f0011ff0030303030303030303030303030303030303030303030303030303030303030303030303030303030303030303030303075
:40114000303030303030303030303030303030303030303030303030303030303030303030303030303030303030303030303030303030303030303030303030303030306f
:40118000303030303030303030303030303030303030303030303030303030303030303030303030303030303030303030303030303030303030303030303030303030302f
:4011c00030303030303030303030303030303030303030303030303030303030303030303030303030303030303030303030303030303030303030303030303030303030ef
:4012000030303030303030303030303030303030303030303030303030303030303030303030303030303030303030303030303030303030303030303030303030303030ae
:020000040010ea
:020000040020da
:02000000f432d8
:00000001ff
